{
  "_format": "hh-sol-artifact-1",
  "contractName": "ConfidentialERC721",
  "sourceName": "contracts/ConfidentialERC721.sol",
  "abi": [
    {
      "inputs": [
        {
          "internalType": "string",
          "name": "_name",
          "type": "string"
        },
        {
          "internalType": "string",
          "name": "_symbol",
          "type": "string"
        }
      ],
      "stateMutability": "nonpayable",
      "type": "constructor"
    },
    {
      "anonymous": false,
      "inputs": [
        {
          "indexed": true,
          "internalType": "address",
          "name": "to",
          "type": "address"
        },
        {
          "indexed": true,
          "internalType": "bytes32",
          "name": "encryptedTokenId",
          "type": "bytes32"
        }
      ],
      "name": "EncryptedMint",
      "type": "event"
    },
    {
      "inputs": [
        {
          "internalType": "address",
          "name": "owner",
          "type": "address"
        }
      ],
      "name": "encryptedBalanceOf",
      "outputs": [
        {
          "internalType": "bytes",
          "name": "",
          "type": "bytes"
        }
      ],
      "stateMutability": "view",
      "type": "function"
    },
    {
      "inputs": [
        {
          "internalType": "bytes",
          "name": "encryptedTokenId",
          "type": "bytes"
        }
      ],
      "name": "mint",
      "outputs": [],
      "stateMutability": "nonpayable",
      "type": "function"
    },
    {
      "inputs": [],
      "name": "name",
      "outputs": [
        {
          "internalType": "string",
          "name": "",
          "type": "string"
        }
      ],
      "stateMutability": "view",
      "type": "function"
    },
    {
      "inputs": [
        {
          "internalType": "bytes",
          "name": "encryptedTokenId",
          "type": "bytes"
        }
      ],
      "name": "ownerOfEncrypted",
      "outputs": [
        {
          "internalType": "bytes",
          "name": "",
          "type": "bytes"
        }
      ],
      "stateMutability": "view",
      "type": "function"
    },
    {
      "inputs": [],
      "name": "symbol",
      "outputs": [
        {
          "internalType": "string",
          "name": "",
          "type": "string"
        }
      ],
      "stateMutability": "view",
      "type": "function"
    }
  ],
  "bytecode": "0x608060405234801561001057600080fd5b5060405161077e38038061077e83398101604081905261002f9161010b565b600061003b83826101f7565b50600161004882826101f7565b5050506102b6565b634e487b7160e01b600052604160045260246000fd5b600082601f83011261007757600080fd5b81516001600160401b038082111561009157610091610050565b604051601f8301601f19908116603f011681019082821181831017156100b9576100b9610050565b816040528381526020925086838588010111156100d557600080fd5b600091505b838210156100f757858201830151818301840152908201906100da565b600093810190920192909252949350505050565b6000806040838503121561011e57600080fd5b82516001600160401b038082111561013557600080fd5b61014186838701610066565b9350602085015191508082111561015757600080fd5b5061016485828601610066565b9150509250929050565b600181811c9082168061018257607f821691505b6020821081036101a257634e487b7160e01b600052602260045260246000fd5b50919050565b601f8211156101f257600081815260208120601f850160051c810160208610156101cf5750805b601f850160051c820191505b818110156101ee578281556001016101db565b5050505b505050565b81516001600160401b0381111561021057610210610050565b6102248161021e845461016e565b846101a8565b602080601f83116001811461025957600084156102415750858301515b600019600386901b1c1916600185901b1785556101ee565b600085815260208120601f198616915b8281101561028857888601518255948401946001909101908401610269565b50858210156102a65787850151600019600388901b60f8161c191681555b5050505050600190811b01905550565b6104b9806102c56000396000f3fe608060405234801561001057600080fd5b50600436106100575760003560e01c806306fdde031461005c5780634c919a321461007a5780636bdd6500146100bf5780637ba0e2e7146100d257806395d89b41146100e7575b600080fd5b6100646100ef565b604051610071919061036a565b60405180910390f35b61006461008836600461037d565b6001600160a01b03166000908152600360209081526040918290205482518083019190915282518082039092018252820190915290565b6100646100cd3660046103a6565b61017d565b6100e56100e03660046103a6565b61020b565b005b610064610304565b600080546100fc90610418565b80601f016020809104026020016040519081016040528092919081815260200182805461012890610418565b80156101755780601f1061014a57610100808354040283529160200191610175565b820191906000526020600020905b81548152906001019060200180831161015857829003601f168201915b505050505081565b606060008383604051610191929190610452565b6040805191829003822060009081526002602090815290829020546001600160a01b031690830152818101819052601b60608301527f656e637279707465645f6f776e65725f706c616365686f6c64657200000000006080808401919091528151808403909101815260a090920190529150505b92915050565b6000828260405161021d929190610452565b60408051918290039091206000818152600260205291909120549091506001600160a01b03161561028b5760405162461bcd60e51b8152602060048201526014602482015273546f6b656e20616c72656164792065786973747360601b604482015260640160405180910390fd5b600081815260026020908152604080832080546001600160a01b03191633908117909155835260039091529020546102c4906001610311565b3360008181526003602052604080822093909355915183927fd087fd5fa44520dee736ffdf4e2955803868c0db31557114010e4ec72c5f5be191a3505050565b600180546100fc90610418565b600061031d8284610462565b9392505050565b6000815180845260005b8181101561034a5760208185018101518683018201520161032e565b506000602082860101526020601f19601f83011685010191505092915050565b60208152600061031d6020830184610324565b60006020828403121561038f57600080fd5b81356001600160a01b038116811461031d57600080fd5b600080602083850312156103b957600080fd5b823567ffffffffffffffff808211156103d157600080fd5b818501915085601f8301126103e557600080fd5b8135818111156103f457600080fd5b86602082850101111561040657600080fd5b60209290920196919550909350505050565b600181811c9082168061042c57607f821691505b60208210810361044c57634e487b7160e01b600052602260045260246000fd5b50919050565b8183823760009101908152919050565b8082018082111561020557634e487b7160e01b600052601160045260246000fdfea2646970667358221220874081c060fe3392684548d216b627742d7a58517ceedf480a16bfb0b969502364736f6c63430008140033",
  "linkReferences": {},
  "deployedLinkReferences": {}
}