{
  "_format": "hh-sol-artifact-1",
  "contractName": "ConfidentialERC20",
  "sourceName": "contracts/ConfidentialERC20.sol",
  "abi": [
    {
      "inputs": [
        {
          "internalType": "string",
          "name": "_name",
          "type": "string"
        },
        {
          "internalType": "string",
          "name": "_symbol",
          "type": "string"
        },
        {
          "internalType": "bytes",
          "name": "encryptedInitialSupply",
          "type": "bytes"
        }
      ],
      "stateMutability": "nonpayable",
      "type": "constructor"
    },
    {
      "anonymous": false,
      "inputs": [
        {
          "indexed": true,
          "internalType": "address",
          "name": "from",
          "type": "address"
        },
        {
          "indexed": true,
          "internalType": "address",
          "name": "to",
          "type": "address"
        }
      ],
      "name": "EncryptedTransfer",
      "type": "event"
    },
    {
      "inputs": [
        {
          "internalType": "address",
          "name": "who",
          "type": "address"
        }
      ],
      "name": "encryptedBalanceOf",
      "outputs": [
        {
          "internalType": "bytes",
          "name": "",
          "type": "bytes"
        }
      ],
      "stateMutability": "view",
      "type": "function"
    },
    {
      "inputs": [
        {
          "internalType": "bytes",
          "name": "",
          "type": "bytes"
        },
        {
          "internalType": "bytes",
          "name": "amountEnc",
          "type": "bytes"
        }
      ],
      "name": "encryptedTransfer",
      "outputs": [
        {
          "internalType": "bool",
          "name": "",
          "type": "bool"
        }
      ],
      "stateMutability": "nonpayable",
      "type": "function"
    },
    {
      "inputs": [],
      "name": "name",
      "outputs": [
        {
          "internalType": "string",
          "name": "",
          "type": "string"
        }
      ],
      "stateMutability": "view",
      "type": "function"
    },
    {
      "inputs": [
        {
          "internalType": "address",
          "name": "who",
          "type": "address"
        }
      ],
      "name": "requestDecryption",
      "outputs": [
        {
          "internalType": "bytes",
          "name": "",
          "type": "bytes"
        }
      ],
      "stateMutability": "view",
      "type": "function"
    },
    {
      "inputs": [],
      "name": "symbol",
      "outputs": [
        {
          "internalType": "string",
          "name": "",
          "type": "string"
        }
      ],
      "stateMutability": "view",
      "type": "function"
    }
  ],
  "bytecode": "0x60806040523480156200001157600080fd5b50604051620008d0380380620008d0833981016040819052620000349162000172565b6000620000428482620002a7565b506001620000518382620002a7565b506200005d8162000077565b336000908152600260205260409020555062000396915050565b80516020820120600090620000929063ffffffff9062000373565b92915050565b634e487b7160e01b600052604160045260246000fd5b60006001600160401b0380841115620000cb57620000cb62000098565b604051601f8501601f19908116603f01168101908282118183101715620000f657620000f662000098565b816040528093508581528686860111156200011057600080fd5b600092505b858310156200013557828501516020848301015260208301925062000115565b6000602087830101525050509392505050565b600082601f8301126200015a57600080fd5b6200016b83835160208501620000ae565b9392505050565b6000806000606084860312156200018857600080fd5b83516001600160401b0380821115620001a057600080fd5b620001ae8783880162000148565b94506020860151915080821115620001c557600080fd5b620001d38783880162000148565b93506040860151915080821115620001ea57600080fd5b508401601f81018613620001fd57600080fd5b6200020e86825160208401620000ae565b9150509250925092565b600181811c908216806200022d57607f821691505b6020821081036200024e57634e487b7160e01b600052602260045260246000fd5b50919050565b601f821115620002a257600081815260208120601f850160051c810160208610156200027d5750805b601f850160051c820191505b818110156200029e5782815560010162000289565b5050505b505050565b81516001600160401b03811115620002c357620002c362000098565b620002db81620002d4845462000218565b8462000254565b602080601f831160018114620003135760008415620002fa5750858301515b600019600386901b1c1916600185901b1785556200029e565b600085815260208120601f198616915b82811015620003445788860151825594840194600190910190840162000323565b5085821015620003635787850151600019600388901b60f8161c191681555b5050505050600190811b01905550565b6000826200039157634e487b7160e01b600052601260045260246000fd5b500690565b61052a80620003a66000396000f3fe608060405234801561001057600080fd5b50600436106100575760003560e01c806306fdde031461005c5780634c919a321461007a57806395d89b411461008d578063c6bf152a14610095578063e701256e146100a8575b600080fd5b6100646100cb565b604051610071919061036b565b60405180910390f35b61006461008836600461037e565b610159565b610064610197565b6100646100a336600461037e565b6101a4565b6100bb6100b63660046103f0565b6101fc565b6040519015158152602001610071565b600080546100d89061045c565b80601f01602080910402602001604051908101604052809291908181526020018280546101049061045c565b80156101515780601f1061012657610100808354040283529160200191610151565b820191906000526020600020905b81548152906001019060200180831161013457829003601f168201915b505050505081565b6001600160a01b03811660009081526002602090815260409182902054825191820152606091015b6040516020818303038152906040529050919050565b600180546100d89061045c565b60408051606060208201819052601960808301527f64656372797074696f6e5f726571756573745f68616e646c650000000000000060a08301526001600160a01b03841692820192909252428183015260c001610181565b600080339050600061024385858080601f0160208091040260200160405190810160405280939291908181526020018383808284376000920191909152506102e792505050565b336000908152600260205260408120549192506102608284610306565b6001600160a01b038516600090815260026020526040812054919250906102879085610319565b336000818152600260205260408082208690556001600160a01b0389168083528183208590559051939450927f8fb556326f22f916c68b89ac61b2b94546e36d300cdf1f2398ecaada4b2574009190a35060019998505050505050505050565b805160208201206000906103009063ffffffff90610496565b92915050565b600061031282846104ce565b9392505050565b600061031282846104e1565b6000815180845260005b8181101561034b5760208185018101518683018201520161032f565b506000602082860101526020601f19601f83011685010191505092915050565b6020815260006103126020830184610325565b60006020828403121561039057600080fd5b81356001600160a01b038116811461031257600080fd5b60008083601f8401126103b957600080fd5b50813567ffffffffffffffff8111156103d157600080fd5b6020830191508360208285010111156103e957600080fd5b9250929050565b6000806000806040858703121561040657600080fd5b843567ffffffffffffffff8082111561041e57600080fd5b61042a888389016103a7565b9096509450602087013591508082111561044357600080fd5b50610450878288016103a7565b95989497509550505050565b600181811c9082168061047057607f821691505b60208210810361049057634e487b7160e01b600052602260045260246000fd5b50919050565b6000826104b357634e487b7160e01b600052601260045260246000fd5b500690565b634e487b7160e01b600052601160045260246000fd5b81810381811115610300576103006104b8565b80820180821115610300576103006104b856fea264697066735822122067cf729e343fb5d4e6de47a0b61a69543a39b45974a0c36772435df09a97df5564736f6c63430008140033",
  "linkReferences": {},
  "deployedLinkReferences": {}
}